:020000023000CC
:10B0000000400020F9E7030041E8030043E80300A3
:10B010000000000000000000000000000000000030
:10B0200000000000000000000000000045E80300F0
:10B03000000000000000000047E8030049E80300AA
:10B040004BE803004BE803004BE803004BE8030028
:10B050004BE803000000000029DC03004BE803007C
:10B060004BE803004BE803004BE803004BE8030008
:10B070004BE803004BE803004BE803004BE80300F8
:10B080004BE80300EDCA03004BE803004BE8030064
:10B0900095CB03004BE80300E9C203004BE8030033
:10B0A0004BE803004BE80300000000000000000034
:10B0B0000000000000000000000000000000000090
:10B0C00010B5064C2378002B07D10548002802D084
:10B0D000044800E000BF0121217010BD8024002041
:10B0E0000000000010EC030008B5084B002B03D053
:10B0F0000748084900E000BF07480168002903D05D
:10B10000064A002A00D0904708BDC0460000000053
:10B1100010EC0300842400207C24002000000000A8
:10B12000164B002B00D1144B9D46402292029A1AD6
:10B13000924600218B460F461348144A121A03F018
:10B1400052FC0F4B002B00D098470E4B002B00D029
:10B1500098470020002104460D4600200C4900229B
:10B16000002303F0D7FB03F00FFC2046294600F034
:10B17000BBF903F0DBFBC0460000080000400020E4
:10B18000000000000000000080240020A82E002005
:10B190005DE9030000B5BFF34F8F034A034BDA604C
:10B1A000BFF34F8FFEE7C0460400FA0500ED00E054
:10B1B0003ADF7047C130A023FF3080000322D90559
:10B1C00042507047C130A023FF3089008000DA056B
:10B1D0008150704701238340A121A022181CCB007D
:10B1E000D105C85070470000012383400249A022C6
:10B1F000181CD305585070470C05000008B51920DD
:10B20000FFF7D8FF0620FFF7D5FF1820FFF7D2FF82
:10B2100008BD08B51920FFF7E7FF0620FFF7E4FF98
:10B220001820FFF7E1FF08BD08B51A20FFF7DCFF83
:10B230001A20FFF7BFFF0320FFF7D6FF0320FFF719
:10B24000B9FF0220FFF7D0FF0220FFF7B3FF07206E
:10B25000FFF7CAFF0720FFF7ADFF0820FFF7C4FF85
:10B260000820FFF7A7FF1C20FFF7BEFF1C20FFF7F9
:10B27000A1FF1D20FFF7B8FF1D20FFF79BFF0C204B
:10B28000FFF7A8FF0C20FFF795FF0B20FFF7A2FFA9
:10B290000B20FFF78FFF0920FFF7A6FF0920FFF71C
:10B2A00089FF1120FFF7A0FF1120FFF783FF0F2078
:10B2B000FFF79AFF0F20FFF77DFF1020FFF78AFFAF
:10B2C0001020FFF777FF01210F20FFF77BFF1520EC
:10B2D000FFF78AFF1520FFF76DFF1720FFF784FFA8
:10B2E0001720FFF767FF13200121FFF76BFFA02353
:10B2F00023490222D805E2234250D900214B425073
:10B30000C2500E20FFF766FF0E20FFF753FF0D20FF
:10B31000FFF760FF03210D20FFF754FF0A20FFF71E
:10B3200063FF0A20FFF746FF1620FFF75DFF162098
:10B33000FFF740FF1B20FFF757FF1B20FFF73AFFE7
:10B340000020011CFFF73EFF1E200021FFF73AFFFF
:10B3500000211220FFF736FF1920FFF745FF1920C3
:10B36000FFF728FF0620FFF73FFF0620FFF722FF29
:10B370001820FFF739FF1820FFF71CFF08BDC04653
:10B38000040700001407000007B5044A009001916B
:10B390006846082101F014FF0EBDC04605B4030045
:10B3A00008B50020011C024A01F00AFF08BDC04692
:10B3B00091B4030008B502F00DF908BD80B584B062
:10B3C00000AFF860B9607A601920FFF703FFFFF75C
:10B3D000E1FE000007B5084B002000930321052281
:10B3E000064B01F093FD002804D08E214900044A49
:10B3F000FFF7E4FF07BDC04689B303009C2400208B
:10B400003CEA030010B5041C082905D08D2100205A
:10B410004900034AFFF7D2FF60682368984710BDD0
:10B4200046EA0300064908B50120403102F044FC19
:10B43000002803D08D21034AFFF7C0FF08BDC04696
:10B440009C2600203CEA03000B4908B50B20543130
:10B4500050220A4B00F008FF002803D00849094A8F
:10B46000FFF7ACFF084800F033FF002803D007497E
:10B47000044AFFF7A3FF08BD9C260020A1B30300E8
:10B48000470100003CEA0300B5B30300530100008C
:10B4900008B5002904D000209921034AFFF78EFF48
:10B4A00000F09AFE08BDC0468AEA0300064A08B5C5
:10B4B00008201421243201F06DFE002803D0034936
:10B4C000034AFFF77BFF08BD1C2700205B0100003B
:10B4D0003CEA030008B5031C0A1C0248191CFFF7CC
:10B4E0006DFF08BDEFBEADDE80B586B000AF3B1C82
:10B4F000173300221A708023DA05684BD2583B1CA0
:10B500001633B13A51424A411A70FFF777FE644B45
:10B510001A683B1C15336349521851424A411A704C
:10B520003B1C15331B7801225340DBB2002B07D0A4
:10B53000B6235A005C4B0020111C1A1CFFF73EFF7B
:10B5400080235B051A693B1C143358495218514239
:10B550004A411A703B1C14331B7801225340DBB262
:10B56000002B06D0524A504B0020111C1A1CFFF72A
:10B5700025FFFFF72FFFFFF755FFFFF755FE00F000
:10B580003DFB00F087FB031C002B28D000F092FB52
:10B59000031C3B613B69FB60FB68002B08D0F9682A
:10B5A000BC235A00404B081C111C1A1CFFF706FF55
:10B5B000FFF74AFFFFF77AFF00F0ACFB031C3B618B
:10B5C0003B69BB60BB68002B0DD0B968BF235A0034
:10B5D000354B081C111C1A1CFFF7F0FE03E0FFF7A7
:10B5E00033FFFFF763FF3B1C17333A1C1632127808
:10B5F0001A703B1C17331B78002B0AD180239B0247
:10B60000181C00F051FA031C01225340DBB2002B3E
:10B610002AD0FF20FFF7CCFD031C3B613B697B6018
:10B620007B68002B08D07968C6235A001E4B081C83
:10B63000111C1A1CFFF7C2FE0620FFF7CBFD00F01D
:10B64000F3FA031C3B613B693B603B68002B08D06D
:10B650003968C9235A00144B081C111C1A1CFFF727
:10B66000ADFE0620FFF7C0FD80239B02181C00F0F2
:10B670001BFA031C002B06D0FFF7CBFD80239B0297
:10B68000181C00F0DDFA1920FFF7AEFD0620FFF7C9
:10B69000ABFD1820FFF7A8FDFFF77CFD1C0500009F
:10B6A000141000100050FCFF3CEA030000FCFFFFF8
:10B6B0006D01000000B5084B89B001221A7003A883
:10B6C000079A06210170039800920499059A069B37
:10B6D00000F008FA09B000BD90280020F0B51A4C1F
:10B6E0008BB0029363680F1C161C002B22D002291A
:10B6F00002D004291ED104E0227A0320052A19D1A0
:10B7000015E0237A0393022B14D105AD281C0021E8
:10B71000142203F068F900202F70009004350ECD3C
:10B72000059800F0DFF90321636803982172311C4A
:10B73000029A9847002E04D0301C5221034AFFF78A
:10B740003DFE0BB0F0BDC04690280020D6EA0300B5
:10B7500038B50E4D08242B78002B14D1E86801F081
:10B76000ADFC002803D07521094AFFF727FEF02120
:10B77000E8688903002201F055FC041E03D07821FB
:10B78000034AFFF71BFE201C38BDC046902800204E
:10B79000D6EA030070B51848184C0025A061211C9A
:10B7A000201C0123243118302372257465826561C1
:10B7B00002F090F9261C011EA94201D025721AE060
:10B7C0008022301C94020C300D4AB46201F004FC5B
:10B7D000002803D096210B4AFFF7F0FDF021F06816
:10B7E0008903002201F01EFC002804D09A21054A9A
:10B7F000FFF7E4FD002070BDDDB6030090280020B7
:10B80000B5B60300D6EA0300014B58607047C04646
:10B810009028002038B51E4C4168251C2C35281C6A
:10B82000102203F0D7F82B78590706D503220625F6
:10B8300013422AD1A16B114227D106259A0724D1A0
:10B84000606B256BA26B43199918D820E1630C2516
:10B850004302994219D8227A0825012A15D1FFF707
:10B8600077FF051E11D1211C2C31087842070CD519
:10B87000201C02232430E16B237202F071F90028AE
:10B8800003D0AC21034AFFF799FD281C38BDC04600
:10B8900090280020D6EA030070B5051E29D0AA68BA
:10B8A0001020920728D1154C237A032B23D3042B85
:10B8B00002D9052B1FD101E0052020726968626959
:10B8C0008E00E16BB3180C208B4215D8FFF740FFB8
:10B8D000201C2430A968321C636902F019F9002881
:10B8E0000AD1656976196661E46BA64204D0092025
:10B8F00002E00E2000E0082070BDC0469028002025
:10B90000F8B5114C051C237A032B03D00820042B17
:10B9100019D101E00420207266690820002E12D19E
:10B92000FFF716FF6968277C331CFA18D0B28B42E8
:10B9300007D08600AA68A0199E00B258013302649D
:10B94000F3E722740020F8BD9028002010B5144CB5
:10B95000237A052B21D16169E26B0620207208232E
:10B9600091421BD1FFF7F4FE80239802E16B002285
:10B9700000F004FC211C40310B78221C217C413258
:10B9800060821278002904D012021A430B239042DD
:10B9900004D107202072002300E00823181C10BDEA
:10B9A0009028002030B50C4C89B0237A0820072B52
:10B9B00010D1E06801F082FB608A03AA0799002594
:10B9C00015705080E36B03980091059A049900F07C
:10B9D00089F8281C09B030BD9028002000B589B036
:10B9E000079803AB07221A7004990090059A0398F0
:10B9F000069B00F077F809B000BD002070470020DA
:10BA0000704700207047002070473DDF704711DF0E
:10BA1000704713DF7047000008B5FFF7F6FF0028F6
:10BA200003D05421054AFFF7C9FC01F053FC044B35
:10BA3000187802380228F0D808BDC046EBEA0300A7
:10BA40001029002008B5074B1878012802D10229D7
:10BA500000D11970002A04D0101C4221024AFFF7BD
:10BA6000ADFC08BD10290020EBEA030010B50C4C1A
:10BA70001C21201D01F0E6FF002803D08921094A7E
:10BA8000FFF79CFC211C201D0C311C22002301F01F
:10BA900001FF002803D08F21024AFFF78FFC10BD61
:10BAA00010290020EBEA0300036807B5013301D138
:10BAB000002015E001A800F06BF901980278012A36
:10BAC000F6D141880022914205D0802381689802F6
:10BAD00000F054FB021C019841888A1A50425041E0
:10BAE0000EBD000084B0F0B5051C85B0C4B20A904C
:10BAF000280C019003A80F1C0B91161C0C920D939F
:10BB00001D1C00F045F9002C09D13A4B6E46B48853
:10BB10005D61FF210125DC811D73197432E0012C68
:10BB200013D1344B69468A88F0199F610E9F4119E1
:10BB3000DA81FF20A52259611A731874DE611D6233
:10BB40005F621C70FFF792FF4FE0032C0DD103984A
:10BB5000284B0178846819734288AA20DA815C61D5
:10BB600018749F61DE611D620BE0022C0CD1214B29
:10BB70000022FF24DA815A611C731C749A61DA6115
:10BB80001A6201251D70DDE7062C09D102F01EFCAA
:10BB9000002803D0D321184AFFF710FC032122E02C
:10BBA000042C08D1134B0025FE21039FDD815D612C
:10BBB000197338790AE0052C0AD1039F0D4B3E78A2
:10BBC000BC681E737A88FE20DA815C611874B9E75C
:10BBD000072C0AD102F0FAFB002803D0ED21064A17
:10BBE000FFF7ECFB0421034E317005B0F0BC08BC3C
:10BBF00004B0184710290020EBEA03001FB5084BDA
:10BC00001C20012101930290039101F061FD0028A5
:10BC100004D1044901A8043101F090FD05B000BD34
:10BC200045BA03001029002010B5FFF7B3FD041E2C
:10BC300004D102F0FFFA041CFFF7EEFE201C10BD39
:10BC400008B5FFF7E4FE002804D09D2149000E4A04
:10BC5000FFF7B4FB0D4B1968002301229A401142F3
:10BC600001D00B48C2670133202BF6D1FFF7D1FE7C
:10BC7000002804D0A0214900034AFFF79FFB80233E
:10BC8000980200F07DF808BDEBEA030000E100E057
:10BC900004E100E007B501A800F07AF8019B1A78EA
:10BCA000A52A04D01879AA384342584100E001205F
:10BCB0000EBD000010B5FFF7A6FE00280BD06420D3
:10BCC00002F02EFDFFF799FE00280AD00E490F4A18
:10BCD000FFF774FB05E0FFF794FE0028EFD1002486
:10BCE00010E0FFF790FE002804D0B6214900074A73
:10BCF000FFF764FBFFF783FE041EF0D00449034AFC
:10BD0000FFF75CFB201C10BD69010000EBEA03009B
:10BD10006F01000010B588B003AC201C0021142274
:10BD200002F061FE02230020237000900434039887
:10BD30000ECCFFF7D7FEFFF76FFE002008B010BD56
:10BD400030B50E4989B001AC051C0431201C1C2201
:10BD5000002301F02BFE2378A1682B706088A96076
:10BD600068802279E36820696169A4692A71EB60BF
:10BD700028616961AC6109B030BDC046102900205E
:10BD8000026882F3088843681847C0467047C04677
:10BD9000014B03607047C04600FC0300A0DF704702
:10BDA000A2DF7047A5DF7047A6DF7047A8DF7047A6
:10BDB00062DF7047F0B5051C95B00F1C0E240028FB
:10BDC00000D18BE0002900D188E00A68002A00D168
:10BDD00084E00123584228804249102204A802F03E
:10BDE000F9FD414902AE3180694604A80A31FFF7E6
:10BDF000DFFF041E72D1AA1C0120311CFFF7CEFF09
:10BE0000041E6BD1B678211C2E711C220DA802F0E5
:10BE1000EAFD0DAA137804206A4603430DA90B70AE
:10BE20009673324E948096811021012211436B4605
:10BE3000597108AE032368468371211C1422301CFB
:10BE400002F0D1FD03AC01A814210894B181706007
:10BE50006888AB1D0DA9321CFFF7A2FF041E3DD15F
:10BE6000211C1C220DA802F0BEFD0DAA137808208B
:10BE7000034310210B430DAA13702B791C4968460C
:10BE8000A2B2837381818480130A0F20834301212E
:10BE90000B430F2213401020034369464B711323B9
:10BEA0008B711422211C301C02F09DFD03AC01AAF1
:10BEB000172008947260B0812B1C68880E330DA97E
:10BEC000321CFFF76DFF041E08D13E687F682E62AA
:10BED000002F00D06F62074901250D70201C15B09E
:10BEE000F0BDC04600EB0300301500003215000025
:10BEF0003115000038290020F0B5061C87B0002855
:10BF00002AD00788164B08209F4226D0154D2A7844
:10BF1000002A22D010226C1C6A700D0A072325719A
:10BF200001206D46A070E170080CEB80090E02AD97
:10BF30006071A171281C0021637002F054FDF68924
:10BF4000062301226B44381C291C2E80AA70AB608A
:10BF5000EC60FFF729FF00E00E2007B0F0BDC046FF
:10BF6000FFFF000038290020F0B5061C87B000282C
:10BF700028D00788154B08209F4224D0144C2278E3
:10BF8000002A20D01120651C6070A1700C0C0B0AD7
:10BF9000EC706A4602AC090E0520AB702971D080A6
:10BFA0000021201C102202F01EFD0621F6896944A2
:10BFB0000123A160381C211C2680A370E560FFF7D7
:10BFC000F3FE00E00E2007B0F0BDC046FFFF00000A
:10BFD00038290020F0B5061C87B0141C002822D098
:10BFE0000788124B08209F421ED0114B1A78002A56
:10BFF0001AD09970DC70694602AC03201022C88008
:10C00000201C00215D1C5A7002F0EDFCF68906220E
:10C0100001236A44381C211C2680A370A260E560BD
:10C02000FFF7C2FE00E00E2007B0F0BDFFFF0000EA
:10C0300038290020F0B5041C8DB00E1C002800D15A
:10C0400097E0002900D194E0026A002A00D190E034
:10C050000B88112B1AD004D8102B00D089E08A88C5
:10C0600016E0502B03D0512B00D082E012E0C8889C
:10C07000E188884200D07CE002A908270F70F58B88
:10C0800020360D718E60201C904772E001267242AE
:10C0900022806EE0887902286BD10989E589A9425E
:10C0A00067D16A4608AF06323870108005AD608AE5
:10C0B00000212B1CFFF776FE002804D0656A002DB6
:10C0C00004D0A84702E02A78D20706D42A4B391CAC
:10C0D000BB802088FFF76AFE45E00023BB802088F4
:10C0E000391CFFF763FE00283FD1F01CC17F481EBA
:10C0F000072834D802F0AAFB041012141618311ABB
:10C1000000212970378C012F01D8297120E00122EC
:10C1100023362A71AE601BE0012618E0022616E0E5
:10C12000032614E0042612E0052610E0338C022BCF
:10C1300002D8201C082113E0701DC17F0436F67F51
:10C140000F023743AF8001D1072600E006262E708C
:10C15000226A201C291C90470BE00926F7E7201CC7
:10C160000322FFF737FF002803D0646A002C00D0B9
:10C17000A0470DB0F0BDC046FD01000010B5002A7B
:10C1800001D0138800E00B4B4118884210D01A02EE
:10C190001B0A04781A4392B26240D3B21C0962406F
:10C1A00013035A4092B2D4B2630153400130ECE71A
:10C1B000181C10BDFFFF000023DF70474EDF7047E3
:10C1C00010DF704711DF704760DF704708B5081C4B
:10C1D000111CFFF77FF908BDF7B5214D2B78002B17
:10C1E0003CD06A68A8685642564144424441002EF9
:10C1F00032D101A8FFF7E2FF05280AD0002804D0B9
:10C200006921184AFFF7DAF804E00198696888475D
:10C2100000E00126002C1CD12F69AC89694602314F
:10C22000381C0C80FFF7D0FF041E052C0BD0002813
:10C2300005D080210B4AFFF7C1F8002404E0381C28
:10C24000AB68984700E00124002ED2D0002CCED05D
:10C2500004E0002E02D1CCE7002CDDD0F7BDC046B3
:10C260004029002010EB030038B5051C07200029E9
:10C2700010D08C070ED1084C281C21610749A281DF
:10C280006361FFF79DFF002804D10123162023706E
:10C29000FFF792FF38BDC04640290020CDC1030002
:10C2A00008B5FFF78FFF021C531E9A41014B1A700D
:10C2B00008BDC0464029002000B5002803D0034B2C
:10C2C0009860002000E00E2000BDC04640290020FC
:10C2D00000B5002803D0034B5860002000E00E207A
:10C2E00000BDC0464029002008B5084B5869002809
:10C2F00008D08047002807D099214900044AFFF759
:10C300005DF801E0FFF768FF08BDC0464029002046
:10C3100010EB030072DF704779DF70477DDF7047F5
:10C3200064DF7047F0B587B0061C0C980391017864
:10C330000024029200930191251C33889D423EDA2D
:10C340007268A8006F4611181337042205A802F07E
:10C3500041FB05A8391C0022FFF7E2FF002839D174
:10C360003B780298834226D10C9F614261413B7821
:10C370004A00181881181F291FDC002C0AD15C1CE8
:10C380006F460C20E2B2C15D009C0233A1540C9AAE
:10C39000012413700C9B009819786F4613374218CC
:10C3A00005A8391CFFF7BCFF002813D10C993F7872
:10C3B0000A78D3190B700135BFE70C200AE0002082
:10C3C000844207D00C9D019A2E78D443009B01999A
:10C3D000A7195F5407B0F0BDF7B5089E171C00966B
:10C3E0000222051C1C1CFFF79DFF002806D10096A9
:10C3F000281C391C1022231CFFF794FFFEBD0000EF
:10C40000F0B500231370041C007889B00E1C171CB3
:10C41000002803D1A278002A45D027E061780C20BB
:10C420001D2900DD51E16D461E351D22B01C291C61
:10C430002A80FFF773FF002800D046E12378022B03
:10C4400003D1288809221D2807D96078002802D046
:10C4500008221D2801D928880822C5B2691C31701C
:10C4600072703B780233E8183870D3E73D780C20BF
:10C470001B2D00DD29E16D461E35281CFFF74CFF02
:10C48000002800D021E13B780321581CF154C2B2AE
:10C490001921981C2D88B154C2B2B018290A04334E
:10C4A000057041703B70A288002A1BD0A368002B46
:10C4B00000D109E13B780C20991C8D181F2D00DD5F
:10C4C00003E10132F2540133D8B20122CBB232542B
:10C4D0003B70A168F018A28802F07CFA21793D78BF
:10C4E00068183870E268002A10D03B7811780C2068
:10C4F0001C2B00DDE9E0581C0225F554C2B20A25C8
:10C50000981CB5540333C2B2B1543B70218A002940
:10C5100003D1238B002B16D00AE0201C103000978B
:10C5200002210622331CFFF757FF0028F1D0CCE090
:10C53000201C1830009703210722331CFFF74CFF03
:10C54000002800D0C1E0258C002D0AD0201C20300E
:10C55000009714211522331CFFF73EFF002800D05E
:10C56000B3E0A36A002B47D03A780C20911D8C468B
:10C570001F2900D9A9E0198807200591052900D8AD
:10C58000A3E0534D491904916D462D8A51498D42BE
:10C5900000D89AE05D880395052D00D895E04C49B8
:10C5A0006D18049510216D464D5B4A498D4200D8A7
:10C5B0008BE0494D0599A94206D00399A94203D0C1
:10C5C000059D8D4200D980E0511C0520B054CDB2AC
:10C5D0001220911C7055CDB23D701888043271192B
:10C5E000D2B2050A08704D703A705B88B018190A0B
:10C5F0006546037041703D70E56A002D28D02979A9
:10C600003B78881C9A1CC0B2049212180C201F2A76
:10C610005BDC0331F154591CCAB2FF206946B054A7
:10C620000A7C04333A702888B218010ADBB2107011
:10C6300051703B70AA88002A0AD0A96807200029F7
:10C6400043D0F01802F0C6F92D79387842193A70C3
:10C65000211C343105910B780020834235D0256BA5
:10C660000490854230D00598049902788A4229D9ED
:10C67000049B0C255D43206B397845192A794B1CA6
:10C6800003327254D8B216228B1C3254D8B238708E
:10C690002A8833180431100A1A705870CBB23B70D4
:10C6A000AA88002A09D0A96800290DD0F01802F044
:10C6B00091F92D7939784A193A7004980130C3B24A
:10C6C0000493D0E7002000E0072009B0F0BDC04689
:10C6D0007FF3FFFF7DF30000FFFF0000F0B593B094
:10C6E0006D466E460023063507360C1C2B703370E2
:10C6F00098420BD08188002901D1072024E082686C
:10C70000002AFAD017787A07F7D516E0071C002C14
:10C7100003D0A0880028F0D106E0221C29783378C5
:10C72000381CFFF7F7FD0FE0321C201C0AA9FFF7A9
:10C7300067FE0AAA0028F1D006E002A92A1CFFF72A
:10C740005FFE02AF0028E2D013B0F0BD70B5094C17
:10C75000051C0E1C201C111C7F2202F04DF90649FD
:10C760007F340023B0B2237008804D600A884B6884
:10C7700072B6FEE758290020D829002010B50E4CCB
:10C7800001236060201C628008307F22238002F039
:10C7900033F9201C873000220270201C074C6946A8
:10C7A000236880245A1A883063009A4200D91A1CE0
:10C7B00002F010F9002010BDE029002000B00300B5
:10C7C00075DF704776DF70477ADF70477BDF704731
:10C7D00037B5164C164B2088251C984225D0A178D9
:10C7E000227C0131CBB2A3709A4209D3211C2031A3
:10C7F000FFF7E6FF002818D0E569002D14D114E0FA
:10C80000297D0024AC70002908D03B21FFF7DAFF16
:10C81000002803D0EB69002B00D09847AD69002DAC
:10C8200003D001A800220270A84737BD682B002062
:10C83000FFFF000013B5174C638D228C9A420DD870
:10C84000608C98420AD3A169002903D001A8012372
:10C850000370884734340020207013BD211C34310C
:10C860000B78002B05D0A1690029F3D001A8002383
:10C87000EEE7A278002A01D1A16800E0E168206B10
:10C88000002200F0CFFB0028E4D0E1690029E0D1CC
:10C89000E0E7C046682B0020F8B5164C021C211DAD
:10C8A0000B1CE0CAE0C3191CE0CAE0C11568261CD5
:10C8B0000D600168251C3436002720353770281C90
:10C8C000B94212D0082202F085F8281CFFF77CFF3D
:10C8D00000280DD101204342201C0021064A30309F
:10C8E0002380A17000F078FB02E0FFF76FFFEFE715
:10C8F000F8BDC046682B0020D1C7030008B5024B25
:10C90000186B00F0DBFB08BD682B002010B5038816
:10C91000112B18D002D8102B3AD104E0122B2FD0B3
:10C92000502B35D116E01B4C818808222180011C38
:10C93000201C0E31283002F04DF8628A0020A070D1
:10C94000002A25D122E0134C0123594200222180E4
:10C95000A2700BE00F4CC388618A8B4218D1C28B46
:10C96000022A15D10130C07FC2070FD4206B00F01E
:10C97000A5FB00280CD0E469002C09D0A04707E0F3
:10C98000811D04480822283002F024F8FFF752FFE6
:10C9900010BDC046682B002073B5154C011C251C2A
:10C9A0002035281C082202F015F8281CFFF70CFF80
:10C9B000251C061E19D1638D228C9A4202D8608CE8
:10C9C00098420BD2291C343101240C70291C288870
:10C9D0002031FFF7F5FEAC70061C06E0A569002DBE
:10C9E00003D001A801230370A847301C76BDC046C0
:10C9F000682B002010B5427883780132D31A5C1E70
:10CA0000A3415C4214400278944206D00C60417805
:10CA1000182359434068401800E0002010BD000072
:10CA2000144B00B55868C105CB0D0421002B18D05C
:10CA3000103B5AB2002A08DA0F221A40083A91082D
:10CA40000D4A88008118486804E09008C0300B49FE
:10CA500082005058032213409340D840C3B2980933
:10CA6000C1B24A1ED3B20220834201D80448C05C3E
:10CA700000BDC04600ED00E018ED00E000E100E080
:10CA80005BEB030000B52F23C046C046C046C0463E
:10CA9000C046C046C046C046C046C046C046C04666
:10CAA000C046C046013B002BEED100BD38B5802208
:10CAB0000B4B9002D8670B4CD222C22380214D022F
:10CAC000900099002550655001256560FFF7DAFF59
:10CAD000A560054C00252560FFF7D4FF257138BD02
:10CAE00004E100E000100140A02B0020224AF8B52C
:10CAF0000023224C53649364D364136553609360A2
:10CB0000A5686A1C37D01E481E4927680E58F21BBC
:10CB10001002060A1F1C24235D43E168481945687A
:10CB2000AE4215D32269761B7F198169056AC369F4
:10CB3000002A09D0081C191C9047002806D0124969
:10CB4000124AFEF73BFC01E0181C88476B1CE2D13F
:10CB5000207D667D864206D10136F5B26575022DCF
:10CB600001D100226275617D094E8B00E418A76136
:10CB7000802778037060F8BDFC100140A02B0020D6
:10CB80000405000000100140630100005EEB03009B
:10CB9000FCE100E0F0B5AD4B89B01C681A7D597D11
:10CBA0000194914212D00132D0B2022800D100206B
:10CBB00018751D7D0199AE009C19A26901265718B0
:10CBC0003802050A00921D60069602E000270097D1
:10CBD00006979C680133DE7F07940396013EF3B20B
:10CBE00002930299994AFF2963D00298556AC100BD
:10CBF0006E18377804977478049A944257D0049842
:10CC000018234343051C7168B2780135ECB2CF1884
:10CC1000131B581E8341584204400494397802295A
:10CC200005D00329E7D1894CE768A06834E079682A
:10CC30002427864C4F43E568EA190592137D002BA3
:10CC4000D9D0A3681C1C1F1C601C21D024208C423E
:10CC500004D060432A18271C146AF5E7A74208D1BC
:10CC60004343E9180B6A79488360013301D1FFF728
:10CC70001DFF2422544357432C19236AEF1961687E
:10CC80003B625C1C04D05343ED18686842186A602C
:10CC9000059C00212175AEE7451C06D0242568437C
:10CCA00000233A181375106AF6E7A060A3E7029E06
:10CCB00094E7069F9168002F09D1079801240D1A67
:10CCC0002E1C711E8E41634202969C462FE001206D
:10CCD000D76845420297AC4600204B1C23D0242342
:10CCE0004B43029C009FE3185E68B74205D2F01BDD
:10CCF000586001239160029319E0009D8019AC1BDC
:10CD000000941C6900265E601E751E6A002C08D007
:10CD1000019FDC60C5192F0264463D0A9D601C62BC
:10CD20008C46311CD9E7494EB160012102919568CA
:10CD3000566AD768126804950596009706922B1CD0
:10CD4000039C013CE1B20391FF2900D182E00398EA
:10CD5000059DC600A91967467D1C08D0624624209F
:10CD60005043009D2A18176A6046BC4622E00A78A4
:10CD70004C789442E4D0182050434E6801328F78AA
:10CD8000D5B234180D70AF4201D100220A70267856
:10CD90006068012EEBD124254543009F7A19167D4A
:10CDA000002EE4D1A5689560E768D7602669166112
:10CDB0006469D461069E9568AC1B27023E0A244F25
:10CDC000D468BE4201D8341908E0069E751B2F02B4
:10CDD0003E0AB44201D9A41B00E00024012700252B
:10CDE00054607E4224249560D56017751662221C1B
:10CDF0004243009FBD185A1C25D05C433C196A6809
:10CE00006668B24203D8B21A62602B621BE00193DB
:10CE10001C1C24266643009FBE197768BA4206D9B7
:10CE2000366AD21B0194771C05D0341CF1E7BF1A77
:10CE30007760261C019C242767432E62009E6A604F
:10CE4000F419206287E7031C85E7C046A02B002069
:10CE5000FEFF7F00284D0498AB60834202D1029E02
:10CE6000002E46D0581C42D024277B43EA68234931
:10CE7000D3185C6828680094214C66582979371AC1
:10CE80003A02130A033303900293002913D180203E
:10CE9000D122C121470293008800E7508022275009
:10CEA000C021184F930248003B503B600127276088
:10CEB000FFF7E8FD2F71029A009DAA4200D22A1CBA
:10CEC000039BA825D1180802070AEA000B4BA750BC
:10CED000E458A11B0802050ABE1B370203353A0AB3
:10CEE000954206D9802308499C024C6001E0FFF777
:10CEF000DDFD09B0F0BDC046A02B002004050000F8
:10CF00000010014000E100E0FCE100E0F7B503277C
:10CF100001900E1C00921C1C1D1C1F400720002F9E
:10CF20004FD1002B4DD0FFF7C1FD264B08991A1C9D
:10CF3000283219611670DC60B74205DA00202870CB
:10CF4000287501372435F7E724204643009FA419AC
:10CF500018267E435D1C0320221CE8775C62183291
:10CF60006D462F7800210138626021706170A770D2
:10CF7000921908340028F3D10124134F664280210E
:10CF8000C0259E604A036C00C52618755875B1000F
:10CF90003A517D58FF24A543C02635437D503A6061
:10CFA000019D0A49A122D400C4260D51B200BC58EB
:10CFB000074DC026254034022543BD50054FC959B1
:10CFC0001960FEBDA02B002000E100E00010014030
:10CFD000FF00FFFF04050000114BF0B5DC68002CDA
:10CFE0001AD0002A1AD0002818D028331F7800231E
:10CFF000BB420FDA251C2434261C243E3678002E32
:10D0000006D101242C706970AA610360301C06E00F
:10D010000133EDE7042002E0082000E00720F0BD26
:10D02000A02B0020F0B5214E85B00192F268051CBE
:10D030000C1C002A36D0331C2833197807208D4267
:10D0400031D2042C2FD92420684317183A780820AD
:10D05000012A28D17B78012B01D0002700E0271C72
:10D06000FFF7DEFC766AC1007618301C03A9FFF7D3
:10D07000C1FC031C0420002B15D05D600C4A0D4D33
:10D0800001205159DC60019C18701F6199605C613E
:10D090006F460C23D85D084A707080267503556072
:10D0A000002000E0082005B0F0BDC046A02B002005
:10D0B0000010014004050000FCE100E037B5164D0A
:10D0C000041CEA68002A23D02B1C28331978072374
:10D0D00088421ED224206043825C0823012A18D192
:10D0E000FFF79EFC6D6AC300ED18281C01A9FFF72D
:10D0F00081FC042300280CD0446002216C4601709E
:10D100002079064B8022687055035D60002300E0A3
:10D110000823181C3EBDC046A02B0020FCE100E007
:10D1200037B5104D0824EA68002A18D0FFF778FCBC
:10D130006C6AC0002518281C01A9FFF75BFC0424B9
:10D1400000280CD0012103234A4203704260684644
:10D150000479054B6C708025690359600024201CFC
:10D160003EBDC046A02B0020FCE100E0024B034A7C
:10D17000D1580160002070470405000000100140F4
:10D18000411A0802030A1360002070472BDF704722
:10D190002CDF704730B5032414400723002C0BD13B
:10D1A0004D1C064BED00ADB21A6052191C725A604C
:10D1B0005C7258819981231C181C30BDCC2B002037
:10D1C000F0B53E4C87B0638902900D1C0392092094
:10D1D0008B4271D36F4600201737394938704A683F
:10D1E0000420D605F30D01901BD0103B59B2002945
:10D1F00008DA0F21194008398E08324AB000811828
:10D200004A6804E08A08C0322F4896003258032644
:10D210003340B340DA40D0B28209D1B20191012942
:10D220000CD0381CFFF7B2FF022801D172B605E01E
:10D23000002803D05921254AFEF7C0F8267AA08994
:10D240000021864201D2731CD9B2627A914208D081
:10D25000267A217A0023814201D2481CC3B223726C
:10D2600000E01B4E019A012A0BD062B63878FFF716
:10D270008FFF022805D0002803D06121134AFEF752
:10D280009DF8134F0420BE4216D02168F000039B86
:10D29000029A0F183B60002A0CD0002D0AD060893A
:10D2A00064684643111CA0192A1C01F093FBBD8041
:10D2B000002001E00020B88007B0F0BDCC2B00209A
:10D2C00000ED00E018ED00E000E100E0A1EB03005C
:10D2D000FFFF000010B50D4B197A5A7A914213D016
:10D2E000597A9C89587A0022844201D9421CD2B2D0
:10D2F0001868CC005A7202195C895B68614358183F
:10D30000918812689047E6E710BDC046CC2B0020FC
:10D3100051DF704750DF704773B50D4B021C1D780D
:10D32000182068431C18217924690A48022C01D16D
:10D33000466F03E0142674430419E66F1820454332
:10D3400058195D19AC68AB6910300094B04773BDD3
:10D35000DC2B00205C2C0020F8B5434C1F1C237CE8
:10D36000061C151C002B06D1381C104301D10222CB
:10D3700000E001222274237C0320013B052B72D89C
:10D38000181C01F063FA031523354E6080256A05E9
:10D39000536910691769166980B2BDB2B2B29208BA
:10D3A00058436943FFF7B4FF022200285AD05AE0DD
:10D3B000081CFFF7AFFF002855D10322002D51D1E3
:10D3C000002F13D13678042E29D14AE0802043055E
:10D3D00018695A691B6980B2484399B251432A1CA3
:10D3E000FFF796FF00283ED1002F15D0042239E028
:10D3F00080235B0518695A691B6980B29BB2484358
:10D4000053437168AD0040185A18511940193A1C1D
:10D41000FFF77EFF002826D13778042F11D0052290
:10D4200020E0802042051369A8009AB251434018B9
:10D4300071697668B208FFF76BFF002813D13D438E
:10D440000FD006220EE080214B055F6918691E6926
:10D4500080B2B1B2784301F00DFAFFF75BFF00280C
:10D4600001D107222274F8BDDC2C0020F8B5364E1D
:10D47000182233785343F0180179041D25690429D3
:10D4800018D0052940D00F2002295BD12F4F6268A8
:10D490007B696169A46898022D4B2D19171A091828
:10D4A00028189F4201D8BA0801E080225200FFF7F5
:10D4B0002FFF43E0E36814275F43264AD019043264
:10D4C000D219111CD26F083008318027C06FC96F84
:10D4D0007F05AA4204D1021C4A436068824201D0FF
:10D4E000022B0AD13C69281CA1B201F0C3F91749EB
:10D4F0004A698018FFF70EFF20E03B69281C99B2AB
:10D5000001F0B8F9011C09E0802047053969281CA1
:10D5100089B201F0AFF9A368011CED183A693F69BF
:10D5200090B24843BFB22B1A481C47439A0863681D
:10D53000ED18781B8308201CFFF70EFF002801D18F
:10D540000127B770F8BDC046DC2B0020DC2C002082
:10D55000FF0300005C2C0020F8B5134C061C657816
:10D5600004200A2D1ED020782F18FDB2092D01D9D4
:10D570000A3DEDB2182045436519AA612A1C2E7197
:10D580001032C0C9C0C2AB60069BEB60A178002915
:10D5900001D0002003E0FFF769FF1128F9D0667879
:10D5A00001366670F8BDC046DC2B002008B5084B7C
:10D5B00000205978814209D0FFF758FF002805D094
:10D5C000031C113B5A1E93415A42104008BDC046ED
:10D5D000DC2B0020F0B53C4A85B09378141C002B5E
:10D5E0006FD03A4D0023297C93702E1C082905D159
:10D5F000022801D12B745EE02B765CE0022803D078
:10D6000003285ED10D205AE01778182047436D6932
:10D61000D2190135039575611079171D0190022803
:10D6200006D1A8027D681A1CA8425A41029209E05C
:10D63000019A052A05D1C81F45424541AC460293CF
:10D6400001E002939C460198634604280CD1C81F50
:10D650004542454103987F68820294460022BC45BA
:10D6600004D34A424A4101E000252A1C002B07D17D
:10D6700001210D4204D10A4202D1029B0B421AD071
:10D680000025281C3574FFF747FE207818224243F6
:10D690000121A7183D71BD607D61BD61FD607561AF
:10D6A000396166784318013EDDB266702570092D38
:10D6B00001D909382070FFF779FF002801D0FFF762
:10D6C0002BFE05B0F0BDC046DC2B0020DC2C00207A
:10D6D00030B51749174C0023636123740B704B70EE
:10D6E0008B701A1C8B180020012518321871986055
:10D6F0001D6158619861D860F02AF3D18021E06102
:10D700004A0553691169013B8AB253430A492362AE
:10D710000A1C0832D0670B1C0A1CC8678C3388327D
:10D7200048677831257618601060088030BDC046A3
:10D73000DC2B0020DC2C00205C2C0020F0B53D4BC5
:10D7400085B01A7E02911F1C0824002A6ED0002882
:10D750006BD0002969D001680391002965D080242D
:10D7600063051D694668AAB2072496425ED80F2E4B
:10D770005CD980680090002858D0396A051C5A6925
:10D7800075430191944601981A69291892B260462E
:10D79000424391424AD819698AB2954206D91B6917
:10D7A000311C98B201F0AAF800293FD10320304083
:10D7B00084460724002839D1FB690424012B35D085
:10D7C0000299019A0B604A601B4A019910191424AE
:10D7D0005C430019C16703991419E1670834E667CF
:10D7E000009E0830C6676146386A171C80225605BD
:10D7F00034690131A2B289B2954203D93469A2B227
:10D80000AD1A00E0002534693669A2B2B4B28018BE
:10D81000A542EBD214225A43064DBF188C37013370
:10D8200028623960EB61002400E00E24201C05B062
:10D83000F0BDC046DC2C00205C2C0020134B70B5E2
:10D840001C7E0823002C1FD000281CD0002A1AD0D0
:10D8500005680723002D17D10D4CE66F002E13D05D
:10D86000261C0836F66F406871430918201C883062
:10D87000006804344643E46F3619B14204D215609F
:10D8800051602B1C00E00E23181C70BDDC2C002006
:10D890005C2C0020F0B5141C1F4A0F1C117E051CC7
:10D8A00085B00820002935D0002F32D0002D30D08F
:10D8B0002E680720002E2DD1184EF26F002A29D095
:10D8C0006968321C08320391D16F88220291915904
:10D8D00004360A1C0299F66F4A439446039A66443A
:10D8E000B24217D2002C15D08C4213D81E198E428A
:10D8F00010D80322102017420CD10399194311426A
:10D9000008D10093291C3A1C231C0220FFF724FE97
:10D9100000E00E2005B0F0BDDC2C00205C2C0020C7
:10D92000F0B5141C1F4A0F1C117E051C85B0082081
:10D93000002935D0002F32D0002D30D02E6807209E
:10D94000002E2DD1184EF26F002A29D06968321CA2
:10D9500008320391D16F88220291915904360A1C32
:10D960000299F66F4A439446039A6644B24217D22C
:10D97000002C15D08C4213D81E198E4210D80322C9
:10D98000102017420CD103991943114208D100937A
:10D99000291C3A1C231C0520FFF7DEFD00E00E20A9
:10D9A00005B0F0BDDC2C00205C2C0020F7B5151C68
:10D9B000224A0C1C117E061C082000293DD0002C98
:10D9C0003AD0002E38D027680720002F35D11C4AC6
:10D9D000D16F002931D01A4F62680837F96F184F9C
:10D9E00088373F684F43BC46154F0437FF6F674485
:10D9F000BA4222D2002D20D08D421ED85F198F420C
:10DA00001BD8032110200E4217D11F1C17430F40B3
:10DA100013D19918301C2A1C00F0DCFF2068142355
:10DA20004343074A0095D118CD6F201C03213A1CAF
:10DA3000331CA847381C00E00E20FEBDDC2C002063
:10DA40005C2C0020174B73B50D1C197E041C08209C
:10DA5000002926D0002C23D022680720002A20D1BC
:10DA6000114AD66F002E1CD0111DCE6F111C08312B
:10DA70008832C96F126863684A439219934210D280
:10DA800010209A070DD1981B00F038FF07200A1EBE
:10DA900007D100912B1C211C0420FFF75DFD00E045
:10DAA0000E2076BDDC2C00205C2C0020074B00B53E
:10DAB0001A7E0821002A07D0002804D004494B7898
:10DAC0000021036000E00E21081C00BDDC2C0020BA
:10DAD000DC2B00200C4B10B51A7E0823002A11D035
:10DAE00000280ED000290CD00468002C09D007486B
:10DAF0000423426F002A05D102230B604467131CE4
:10DB000000E00E23181C10BDDC2C00205C2C002033
:10DB1000F7B5161C104A0C1C117E051C08200029A4
:10DB200019D0002C16D0002D14D029680720022906
:10DB300011D10A4F7A6F002A0DD0271C1F431020E5
:10DB4000BF0708D10093081C221C291C331CFFF7B7
:10DB500003FD00E00E20FEBDDC2C00205C2C00202C
:10DB60000D4A13B50B1C117E041C0820002911D08E
:10DB7000002C0ED022680720022A0BD107494A6FD9
:10DB8000002A07D000220092211C0420FFF7E4FCA9
:10DB900000E00E2016BDC046DC2C00205C2C0020CE
:10DBA000F0B5002301229A40114217D0C4681442F4
:10DBB00003D12243C260802502E09443C460C025A3
:10DBC000E0277C00A026F2051E19B400A758054ED8
:10DBD000AD023E40A650A7583D43A5500133202B2F
:10DBE000E0D1F0BDFFFFFCFF14220D4B504330B5D8
:10DBF00019680023405801249C4020420BD0E021AA
:10DC00004C00A025EA051D19A9008D58054C2C4093
:10DC10008C508D588D500133202BECD130BDC04637
:10DC2000002D0020FFFFFCFFA223F7B5D800A022A3
:10DC3000BE261F4B00247700D1050D58DC51271C50
:10DC40001C48027ABA4231D901214468B9400668B9
:10DC50000C4228D014237B43F418E06826686840FF
:10DC60008643311C201CFFF79BFFA222A023D1007A
:10DC7000D80542586A400BD0E168154323686940D3
:10DC80008B43201C191C0193FFF78AFF0198064360
:10DC9000A168606831402E403040A943061C0E4305
:10DCA00001D02469A0470137FFB2C9E7F7BDC046DC
:10DCB00000600040002D002038B5002926D0032444
:10DCC0000C400723002C22D1124B142219605872E9
:10DCD0004243081C211C1C725C6000F084FE012180
:10DCE000C2220D4B484295005851C0210B4B4800B1
:10DCF0004022C1251A50A9005D58094828408025B6
:10DD0000ED03284358501A60231C00E00723181C19
:10DD100038BDC046002D00200060004000E100E05A
:10DD2000FFFF00FFF8B5114D071C2E68002E18D01C
:10DD3000002B18D0687A2C7A84460420A44513D985
:10DD4000142060433618101C084330603361716042
:10DD5000B260631C201C3C702B72FFF745FF002053
:10DD600002E0082000E00720F8BDC046002D00209A
:10DD7000F7B5244A1168002941D0147A0723844258
:10DD80003ED9BE23204C5E000025A551A227A02528
:10DD9000FB00EE05F75853680197002B04D180254E
:10DDA000C1262F06B50067510124844023435360E8
:10DDB00014225043081800230668C36001279F40BF
:10DDC0003E4217D00199C024394203D1C56880244E
:10DDD0002F43C760E02779005D18A022A900D20573
:10DDE0008F58A402BC46094F65462F408F508F586C
:10DDF0003C438C500133202BE0D1002300E008236A
:10DE0000181CFEBD002D002000600040FFFFFCFF3D
:10DE100038B50E4C051C2368002B15D0217A07203D
:10DE2000A94212D9281CFFF7DFFE0120A84065682F
:10DE3000854300206560854207D18024C223044ABF
:10DE400021069D00515100E0082038BD002D002022
:10DE5000006000400B4B10B51A68002A0FD01C7AE6
:10DE6000072384420CD9A223A024DB00E405E45854
:10DE700014235843805800232040086000E0082302
:10DE8000181C10BD002D0020064B00201A1C20324B
:10DE9000082118705A609960D860186158619861BB
:10DEA000D86170470C2D00200020704700B5002875
:10DEB0000BD0074904230A78002A07D101230B70ED
:10DEC0000449131C4031016000E00E23181C00BD02
:10DED0000C2D00200C2E0020014B002018707047E4
:10DEE0000C2D002030B500291FD0114B00249D6857
:10DEF0000C600422A54219D00C22202816D81A69D9
:10DF0000242001321A615A69013D50439D605D68C9
:10DF100028180860DD690121914007200132024084
:10DF200029435A61D961221C00E00E22101C30BD29
:10DF30000C2D00201B4BF7B5DE68051C0420002EBD
:10DF40002FD09A690721961B0E405868311C242453
:10DF50004C430719BD420CD1DA6901258D4055406B
:10DF6000DD610020DF69DD689C68019700942A1C50
:10DF70000CE00131072421409142E8D11020F1E763
:10DF8000002A0CD04E1C0724013A2640009F7C1921
:10DF90000127B7403E1C019FA41A3742F0D0DA6037
:10DFA0009C60FEBD0C2D0020054B072259690139EC
:10DFB00011405A6824234B43D1180862002070474F
:10DFC0000C2D002030B5002819D0002917D00D4B9A
:10DFD00004221C69002C13D0DA68013C0132DA609B
:10DFE0009A691C61242454435D6801322C19046031
:10DFF000206A086007210A409A61002200E00E2290
:10E00000101C30BD0C2D00204278837811021A04B8
:10E0100003781143C07819430206081C1043704767
:10E0200073DF704774DF704776DF70477ADF7047C1
:10E030007CDF70477FDF7047A9DF704700B50C2891
:10E0400013D800F003FC0712121212120912141254
:10E05000120D0B0001200BE0032009E0042007E073
:10E060000439481E8141481D02E0062000E00220DC
:10E0700000BD000008B50249024AFDF79FF908BD3E
:10E0800012030000E8EB030008B5E8214900024A4A
:10E09000FDF794F908BDC046E8EB030010B5041C79
:10E0A000081C0321FFF7CAFF0321021C201CFDF7F7
:10E0B00091FF002803D0D021014AFDF77FF910BD60
:10E0C000E8EB030010B50A4C201CFFF7A9FF00285D
:10E0D00003D00849084AFDF771F98021A123A02245
:10E0E0004804D900D30558500120207510BDC04602
:10E0F000502E002051020000E8EB030008B5022872
:10E1000016D0032824D100290BD0124B12491888AD
:10E1100088421DD01321FFF787FFA521002817D0C3
:10E1200013E0101CFFF706FFAB21002810D00CE015
:10E13000081C0121FFF782FF021C0848012118304A
:10E14000FDF748FF002803D0B621054AFDF736F950
:10E1500008BDC04604240020FFFF0000502E002010
:10E16000E8EB030038B5041CFEF7D0FB2B4D211C57
:10E17000281C1830FDF75EFF2388132B29D004D804
:10E18000102B07D0112B48D114E0522B38D0552B2F
:10E1900043D129E0A022A120D3054021C2009950FB
:10E1A00080211F4A48049850A4881E4B00211C80DF
:10E1B000297532E01A48A0222D7D4021D405215036
:10E1C000002D01D1FFF77EFF01231648594201803F
:10E1D00023E0144B2A1C188840320021FFF72AFF45
:10E1E00000281AD0104915E0A579002D15D10D4849
:10E1F00013210088FFF718FF00280ED00B4909E013
:10E20000084A002110880A1CFFF716FF002804D0D6
:10E21000A824A100064AFDF7D1F838BD502E0020F1
:10E220000C05000004240020920200009A02000065
:10E23000E8EB0300F0B5574C0022231C46330326BD
:10E240001A70A020544BEC21E327C505B140B7401C
:10E250006E509DB0EE515148EE50FEF72DF8061E5F
:10E2600000D094E04E48FDF7CFFAFFF70DFE061EF2
:10E2700000D08CE0112201A802704A490722FFF762
:10E28000D7FE002804D0B525A900474AFDF796F827
:10E29000C82203A800210C271823550041600780DD
:10E2A0004380C580FFF7C2FE002803D03F493E4AA5
:10E2B000FDF784F83E483F490590201C0691183030
:10E2C00005A9FDF777FD002803D03B49364AFDF745
:10E2D00075F86B460627DF71384D227F02AF3D800F
:10E2E0000EADBA700021281C382200F07CFB012101
:10E2F000022007232870A9806B442982281C002152
:10E30000AB606F61FEF7EAF9002804D0BF27B900BF
:10E31000254AFDF753F800211422201C00F063FB6E
:10E3200007AFC822550000211C22381C258200F0AE
:10E330005AFB23488021234D7860CB010322381CEF
:10E34000BB603A73BD61FEF7A7FA002803D01E49EF
:10E35000154AFDF733F8A71C1E20231CF88742330B
:10E360001A7801210A43E1252A400C273A4320204C
:10E3700082431A70211C231C247D4333072244311D
:10E3800010251A700D70002C01D1FFF79BFE301C78
:10E390001DB0F0BD502E00206407000065E10300B1
:10E3A000FDE00300FFEB0300E8EB0300DE020000EA
:10E3B00049E4030075E00300250300003015000068
:10E3C000CD0C000089E00300E7010000174B18495D
:10E3D000188810B588420AD01321FFF725FE0028BF
:10E3E0001AD0D824A100134AFCF7E8FF14E0124821
:10E3F000027D041C002A0FD0FFF714FE002803D072
:10E400000E490C4AFCF7DAFF80230D48A02259047C
:10E41000D305195000212175FEF770FA002803D0AA
:10E420000849044AFCF7CAFF002010BD042400205C
:10E43000FFFF0000E8EB0300502E00206302000005
:10E440000C05000069030000F0B5051C087891B0C8
:10E450000C1C092800D953E100F002FA33004200F5
:10E4600044000A001900290033013F014800470118
:10E47000FDF76CFA0421FFF7E1FD0421021C281CC2
:10E48000FDF7A8FD002800D13AE19E4935E1FFF7EC
:10E490009DFF002803D09C499C4AFCF78FFFFDF7A5
:10E4A00081FA002800D12BE1FDF798FA28E1FFF767
:10E4B0008DFF0028F8D08527B900944AFCF77EFF2D
:10E4C000F2E7934B01201D1C463528700A7947332B
:10E4D000002A01D1042401E08E6834781C700FE119
:10E4E000022400E003248A4B4633F7E7884E331CAE
:10E4F00046331878371C0090022847D0032871D083
:10E50000012800D0FCE00CAF002110224736381C57
:10E5100000F069FA31780C22397003A8002100F06C
:10E5200062FA02220392049726790C2E0BD0042E55
:10E5300009D00099281C0322FDF74CFDEE2100288C
:10E5400000D1DDE0D9E0A468201C042E08D0FFF73C
:10E550005BFD7860201DFFF757FDB860201C083078
:10E56000FFF752FDF86003A8FDF754F9002800D129
:10E57000C6E00121FFF762FD0121021C281CFDF706
:10E5800029FD002800D1BBE0872569E08E680122C3
:10E59000069208960F7903233B400027BB420DD01B
:10E5A0000421C81AC7B20023BB4207D22179089EB2
:10E5B00058188200002191510133F5E7247906A80B
:10E5C000E21996080796FDF79BF90221FFF736FD41
:10E5D0000221021C281CFDF7FDFCA025002800D10B
:10E5E0008EE03DE00879009A104208D0281C111CEA
:10E5F000FDF7F0FCAA25002800D181E030E0454974
:10E600000290FFF76FFC011E0FD1A168029AB06C57
:10E6100000F0E0F90298FFF7C7FC011E05D102A93E
:10E620003C48FFF7CFFC011E01D0281C46E00298B1
:10E63000009BB26C810809A809930A910B92FDF71F
:10E640002BF9019000280DD1F16C2779012278185F
:10E65000F0640099281CFDF7BDFC002850D0C225AD
:10E6600069004AE0019B092B1ED1381C26795030E5
:10E67000FC6C02783119F964002A41D03E1C5236F4
:10E680003388013B9CB23480002C39D1281CFDF723
:10E690006BFC002803D020491C4AFCF78FFE3D1C70
:10E6A000543752353E8816E0B06CFFF743FC011E2C
:10E6B00002D0281CFFF7F2FC0199281CFFF7EEFCA2
:10E6C0001EE0134D0122281C503002708E88291C38
:10E6D00054310E8052352E8012E00D4F00233C1C29
:10E6E0005034543723703B800AE00949281CC96C18
:10E6F000FDF702FC002803D00849044AFCF75EFE3F
:10E7000011B0F0BD0202000007020000E8EB0300B8
:10E71000502E0020982E0020950100003E0200009F
:10E7200007B50190019B002B15D001980A490138CB
:10E730000190C046C046C046C046C046C046C0461E
:10E74000C046C046C046C046C046C046C046013965
:10E750000029EED1E6E707BDE7030000014A024BBE
:10E760001A6070470024F400082400201B4B00B5F9
:10E770001A78181C012A11D119490B6819070DD1F3
:10E78000184A1168F022114004D1174B1968114240
:10E7900004D11AE01029F8D03029F6D000780128E9
:10E7A0001BD10F490B68190717D10E4AF0231168C6
:10E7B0001940402911D10C4A116819420DD1C123C9
:10E7C0008021DA00CB05985007E0084B084A8021E9
:10E7D0001360084A0B021360E0E700BDE00F00F091
:10E7E000E40F00F0E80F00F0EC0F00F0DFFF07C0CF
:10E7F00004050040186C004003210A4802680A43DF
:10E800000260094802680A4302600849084A094B45
:10E810009B1A03DD043BC858D050FBDC06488047F8
:10E820000648004724050040540500401CEC030046
:10E8300000240020802400206DE7030021B10300A4
:10E84000FEE7FEE7FEE7FEE7FEE7FEE702B47146FD
:10E8500049084900095C49008E4402BC7047C04623
:10E8600003B47146490840004900095A49008E44E2
:10E8700003BC7047002934D00123002210B4884221
:10E880002CD301242407A14204D2814202D20901DF
:10E890001B01F8E7E400A14204D2814202D2490000
:10E8A0005B00F8E7884201D3401A1A434C08A042A3
:10E8B00002D3001B5C0822438C08A04202D3001B39
:10E8C0009C082243CC08A04202D3001BDC08224350
:10E8D000002803D01B0901D00909E3E7101C10BC74
:10E8E0007047002801D00020C04307B4024802A1AD
:10E8F0004018029003BDC046190000000029F0D066
:10E9000003B5FFF7B9FF0EBC4243891A1847C0464A
:10E910007047C04610B5044C002C02D000E000BF88
:10E9200000E0201C10BDC04600000000094B10B5DF
:10E93000041C002B03D0002100E000BF01E000F028
:10E940000DF805480068816A002900D08847201C1E
:10E9500000F066F8000000000CEC030038B5084B2E
:10E96000084C1D1CE01A8410002C06D0A1006A1867
:10E97000043A13689847013CF6E700F059F838BDAF
:10E98000782400207C24002070B50E4B0E4D00240E
:10E99000E81A85101E1CAC4204D0A10072589047A2
:10E9A0000134F8E700F03EF80849094A0E1C541AF1
:10E9B000A5100024AC4204D0A300F05880470134D5
:10E9C000F8E770BD74240020742400207424002013
:10E9D0007824002010B50023934203D0CC5CC454AB
:10E9E0000133F9E710BD00B58218031C934202D031
:10E9F00019700133FAE700BD10B5031C002A06D0D8
:10EA00000C78013A1C7001310133002CF6D19A18B0
:10EA1000934203D0002119700133F9E710BD0000C3
:10EA200000B5FEE7F8B5C046F8BC08BC9E46704786
:10EA3000F8B5C046F8BC08BC9E4670472E2E2F6D18
:10EA400061696E2E63002E2E2F6E726635315F73F4
:10EA5000646B5F76365F315F305F6232656332656B
:10EA6000362F6E726635313432322F496E636C75D3
:10EA700064652F6170705F636F6D6D6F6E2F617075
:10EA8000705F74696D65722E68002E2E2F6E72662F
:10EA900035315F73646B5F76365F315F305F623252
:10EAA00065633265362F6E726635313432322F49E6
:10EAB0006E636C7564652F73645F636F6D6D6F6EED
:10EAC0002F736F66746465766963655F68616E64F1
:10EAD0006C65722E68002E2E2F6466755F73696EEA
:10EAE000676C655F62616E6B2E63002E2E2F626F06
:10EAF0006F746C6F616465722E63000000FC03002C
:10EB000023D1BCEA5F782315DEEF1212000000006B
:10EB10002E2E2F6E726635315F73646B5F76365FB3
:10EB2000315F305F623265633265362F6E726635F3
:10EB3000313432322F536F757263652F73645F63A4
:10EB40006F6D6D6F6E2F736F667464657669636544
:10EB50005F68616E646C65722E63000002012E2E88
:10EB60002F6E726635315F73646B5F76365F315F2F
:10EB7000305F623265633265362F6E7266353134CE
:10EB800032322F536F757263652F6170705F636FE0
:10EB90006D6D6F6E2F6170705F74696D65722E633D
:10EBA000002E2E2F6E726635315F73646B5F763682
:10EBB0005F315F305F623265633265362F6E726639
:10EBC00035313432322F536F757263652F61707037
:10EBD0005F636F6D6D6F6E2F6170705F73636865DB
:10EBE00064756C65722E63002E2E2F6466755F74DB
:10EBF00072616E73706F72745F626C652E63004435
:10EC00006675546172670043000000000C24002008
:04EC10000000000000
:08EC14000CC5FF7F01000000A8
:10EC1C0000000000FFFF00000024F40000000000D2
:10EC2C0000000000000000000000000000000000D8
:10EC3C0000000000000000000000000007EC0300D2
:10EC4C0000000000000000000000000000000000B8
:10EC5C0000000000000000000000000000000000A8
:10EC6C000000000000000000000000000000000098
:10EC7C000000000000000000000000000000000088
:10EC8C000C240020E9B00300C1B003000000000018
:10FC000000000000000000000000000000000000F4
:10FC100000000000000000000000000000000000E4
:10FC200000000000000000000000000000000000D4
:10FC300000000000000000000000000000000000C4
:020000020000FC
:020000041000EA
:0410140000B0030025
:040000033000E7F9E9
:00000001FF
